:020000040800F2
:10000000F00400209D0100080F1B0008F5190008EE
:100010000D1B000859060008B92100080000000067
:10002000000000000000000000000000351B000878
:100030005B06000800000000311B0008371B0008A9
:10004000B7010008B7010008B7010008B7010008B0
:10005000B7010008331B00085D060008B70100085F
:10006000B7010008B7010008B7010008B701000890
:10007000B7010008B7010008B7010008B701000880
:10008000B7010008B7010008B7010008B701000870
:10009000B7010008B7010008B7010008B701000860
:1000A000B7010008B7010008B7010008B701000850
:1000B000B7010008051C0008B7010008B7010008D7
:1000C000B7010008B7010008B7010008B701000830
:1000D000B7010008B7010008AD210008B70100080A
:1000E000B7010008B7010008B7010008B701000810
:1000F000B7010008B7010008B7010008B701000800
:10010000000000000000000000000000B70100082F
:10011000B7010008B7010008B7010008B7010008DF
:10012000B7010008B7010008B7010008B7010008CF
:10013000B7010008B701000800000000000000003F
:10014000B7010008B7010008B7010008000000006F
:10015000000000000000000000000000000000009F
:100160000000000000000000B7010008B70100080F
:10017000B7010008000000000000000000000000BF
:1001800000000000B7010008DFF80CD000F052FAC0
:1001900000480047D9210008F004002006488047A5
:1001A00006480047FEE7FEE7FEE7FEE7FEE7FEE75C
:1001B000FEE7FEE7FEE7FEE79D1B00088901000859
:1001C000202A04DB203A21FA02F00021704721FAAC
:1001D00002F3D040C2F12002914008431946704713
:1001E000D2B201E000F8012B491EFBD27047002279
:1001F000F6E710B513460A4604461946FFF7F0FF26
:10020000204610BD2DE9FE4F804681EA0300C00F55
:100210000C46009021F0004123F00045B8EB0200AD
:10022000A94105D24046214690461C460B4602464F
:1002300023F00040104347D0270DC7F30A00C3F353
:100240000A510290401A019040286BDAC3F3130060
:1002500040F4801B0098924620B10023D2EB030AA1
:1002600063EB0B0B01985946C0F14002504600F079
:1002700062F906460D4650465946019A00F06AF961
:1002800010EB08006141002487EA115284EAE77309
:100290001A4340D0009A62B3019A012A4FEA0752EA
:1002A00015DC001B61EB02014FF0004202EA07522D
:1002B000CDE90042001C41F5801132462B4600F08A
:1002C0006AF903B0BDE8F08F40462146F9E7001B0C
:1002D00061EB0201001C41F5801300185B412018FE
:1002E000A2F5001747EB030140EAD570B6196D413E
:1002F00011E06D084FEA360645EAC0754FEA07522D
:10030000001B61EB0201001C41F5801149084FEA16
:1003100030000019514132462B4603B0BDE8F04F82
:1003200000F02AB90098012240000023D0EB02021D
:1003300063EBE073009821464FEAE074B8EB0000ED
:1003400061EB0401E9E783F000435BE781F00041E2
:1003500058E72DE9FE4F81EA030404F0004421F040
:10036000004100944FF0000B23F0004350EA0104D9
:100370005ED052EA03045BD0C3F30A54C1F30A55BA
:100380002C44A4F2F3340194A0FB0254C1F31301F2
:1003900041F48011C3F3130343F4801301FB0244BF
:1003A00000FB034E840A970A44EA815447EA8357C4
:1003B000A4FB076802958D0A05FB07854FEA932C7D
:1003C00004FB0C542705029D4FEA065847EA1637EE
:1003D000B5EB08056EEB070C870E920E47EA811706
:1003E00042EA8312A7FB0201B6EB0B0164EB0004A7
:1003F0002B0D43EA0C335E1844EB1C50DA46514691
:10040000E7FB0201C5F313044FEA0B3343EA14532D
:100410004FEA0432019C43EA0603A4F10C0402945F
:10042000009CCDE900B400F0B6F803B0BDE8F08F51
:1004300000200146F9E72DE9F04D81EA030404F0BC
:10044000004B21F0004514464FF0000A23F0004114
:1004500050EA050220D054EA01021DD0C5F30A5724
:100460000246C5F31303C1F31300C1F30A5640F467
:10047000801543F48013A7EB0608101BD64608F23C
:10048000FD3873EB050002D308F1010801E0921872
:100490005B41B8F1000F03DA00200146BDE8F08DA2
:1004A00000204FF48011064684460EE0171B73EBC4
:1004B000050705D3121B63EB050306434CEA010C49
:1004C00049084FEA300092185B4150EA0107EDD12C
:1004D00052EA030012D082EA040083EA05010843CD
:1004E00005D0101BAB4106D20122002306E00022FA
:1004F0004FF0004302E06FF0010253101AEB0600C8
:100500004CEB085110EB0A0041EB0B01BDE8F04D3C
:1005100000F032B80EB5C10F80EAE0700844CA0797
:10052000002140F233438DE80E000A460B4600F0EE
:1005300032F803B000BD202A04DB203A00FA02F1B1
:10054000002070479140C2F1200320FA03F31943C1
:1005500090407047202A06DBCB17203A41FA02F080
:1005600043EAE07306E041FA02F3D040C2F1200210
:10057000914008431946704710B5141E73F10004EA
:1005800008DA401C41F1000192185B411A4301D185
:1005900020F0010010BD2DE9F04D92469B4611B1AF
:1005A000B1FA81F202E0B0FA80F220329046FFF711
:1005B000C2FF04460F4640EA0A0041EA0B015346D7
:1005C0005A46084313D0114653EA010019D0C8F126
:1005D00040025046FFF7F4FD05460E465046594688
:1005E0004246FFF7A8FF084305D0012004E020465B
:1005F0003946BDE8F08D0020054346EAE0762C43FD
:1006000037430A986305E40AA0EB08000022FD0ABC
:1006100044EA47540A3002D500200146E9E70105C3
:1006200010196941DDE9084500196941BDE8F04D3F
:10063000A2E70000064C074D06E0E06840F0010329
:1006400094E8070098471034AC42F6D3FFF7A0FDBA
:100650003022000850220008FEE7704770B50120E4
:100660002DED028B00F058F8174C25686D1C2560A5
:1006700094ED040B53EC102B94ED0A0B51EC100B82
:10068000FFF761FE41EC180B284684ED088BFFF75D
:1006900041FF0E4646EC100B054653EC182B51EC6F
:1006A000100BFFF7C8FEC4E9020146EC105B94EDA5
:1006B000061B51EC100B53EC112BFFF7A3FDC4E903
:1006C0000601BDEC028B70BD0000002010B590F853
:1006D00021100024022903D004218163012418E0A1
:1006E00001680A6822F00E020A6001680A6822F0B6
:1006F00001020A6090F84020C36B012101FA02F266
:100700005A6080F82110002180F82010416B01B15F
:100710008847204610BD7047044910B50A68024258
:1007200002D00860FFF7F7FF10BD0000140401407D
:100730002DE9F84FDFF864B100234FF0010C4FF0C2
:10074000030A4FF00F090BF1040EA0E00CFA03F6B8
:10075000324072D04C68022C01D0122C0ED1DC0831
:1007600000EB8408D8F820405D07EF0E09FA07F582
:10077000AC430D69BD402543C8F8205007685D00B3
:1007800091F804800AFA05F408F00308A74308FA70
:1007900005F848EA0708C0F800804F68012F05D027
:1007A000022F03D0112F01D0122F11D18768D1F859
:1007B0000C80A74308FA05F848EA0708C0F8088043
:1007C0004768B7430E79C6F300169E403E43466025
:1007D000C668A6438C68AC403443C4604C68E400EF
:1007E00054D52F4CA56945F00105A561A46923F0F6
:1007F000030504F0010400942A4C2E19B4689D07E7
:100800002F0F09FA07F5AC43B0F1904F04D0264DF5
:10081000A84203D1012512E0002510E0234DA84293
:1008200001D102250BE0224DA84201D1032506E0AB
:10083000204DA84202D1042501E027E00525BD4056
:100840002543B560DBF800405D464E689443F603EF
:1008500000D514432C60DEF8004075464E68944382
:10086000B60300D514432C600C4D08352C684E6837
:100870009443F60200D514432C60084D0C352C68C7
:100880004E689443B60200D514432C605B1C0A6882
:1008900032FA03F47FF45AAFBDE8F88F0004014048
:1008A0000010024000000140000400480008004819
:1008B000000C00480010004842694A4042617047FD
:1008C0000AB1816170478162704700000148806809
:1008D000704700003000002002488168027811440F
:1008E0008160704730000020074810B5016841F072
:1008F00010010160032000F073F8002000F006F8FA
:1009000000F024F8002010BD0020024070B50D4D0D
:1009100004464FF47A712878B1FBF0F00A4909686F
:10092000B1FBF0F000F046FD48B9102C07D20022D0
:100930002146501E00F034F800206C6070BD01208C
:1009400070BD0000300000203C0000200D4808B5BC
:10095000816941F001018161816901F0010100912A
:10096000C16941F08051C161C069002200F080502E
:1009700000901146052000F013F8BDE8084005205E
:1009800000F002B80010024000F01F020121914067
:100990004009800000F1E020C0F80011704700001D
:1009A000F0B40E4B1B680C46C3F30223C3F10705DA
:1009B000042D00D90425191D072901D2002300E0C8
:1009C000DB1E012606FA05F1491E214099409E4092
:1009D000761E16403143F0BC01F09AB80CED00E0F1
:1009E000064900F0070208684FF6FF03184040EA86
:1009F0000220034A10430860704700000CED00E03D
:100A00000000FA052DE9F84F04460068804DC00348
:100A10006FD5E8690026C00008D4E86940F080502E
:100A2000E861E869012600F080500090794801688B
:100A3000C90512D40168804641F480710160FFF756
:100A400045FF074605E000BFFFF740FFC01B6428D5
:100A500035D8D8F80000C005F6D5286A10F44070E3
:100A600053D0A18801F4407181424ED0286A4FF4DE
:100A7000803191FAA1F2B2FA82F29700664A4FF001
:100A80000108174420F44070C7F8008491FAA1F1DE
:100A9000B1FA81F102EB81010023C1F80034286230
:100AA000C00732D0FFF712FF074641F2883A4FF0F5
:100AB000020907E0FFF70AFFC11B514502D90320D5
:100AC000BDE8F88F99FAA9F1B1FA81F141F040013E
:100AD0004846B8EB511F01D129680CE090FAA0F10B
:100AE000B1FA81F141F04001B0EB511F02D1296A06
:100AF00001E015E0696A99FAA9F0B0FA80F000F017
:100B00001F0008FA00F21142D4D0286A616820F46C
:100B10004070084328621EB1E86920F08050E86107
:100B20002078C00705D0286BA16820F00300084397
:100B300028632078800705D5286BE16820F44030D1
:100B4000084328632078400705D5286B216920F4E5
:100B50004020084328632078800605D5286BE1698A
:100B600020F01000084328632068800305D56868DA
:100B7000A16B20F48000084368602078400605D50A
:100B8000286B216A20F020000843286320780007A2
:100B900005D5286B616920F440100843286320784C
:100BA000C00605D5286BA16920F4400008432863DE
:100BB0002088800505D56868E16A20F400000843B4
:100BC00068602078000605D5E86A616A20F4F8704C
:100BD0000843E8622088C00505D5E86AA16A20F4C8
:100BE00078500843E8622088C00405D5286B216B43
:100BF00020F48070084328632088800405D5286B82
:100C0000616B20F4007008432863002058E700005F
:100C10000010024000700040000042422DE9F04701
:100C20000F46050069D04A4E306800F00700B84210
:100C300009D2306820F0070038433060306800F097
:100C40000700B84259D12878424C800705D5606822
:100C5000A96820F0F000084360602878C0073DD004
:100C60006968012001290DD0022923D05FF0020319
:100C700093FAA3F2B2FA82F242F02002520904D0AF
:100C8000226803E04FF40033F2E7626A93FAA3F3B9
:100C9000B3FA83F303F01F03984002422DD060683B
:100CA00020F0030008436060FFF710FE804641F229
:100CB00088390CE04FF00073DAE700BFFFF706FE5B
:100CC000A0EB0801494502D90320BDE8F087606820
:100CD000696800F00C00B0EB810FEFD1306800F0D4
:100CE0000700B8420BD9306820F007003843306065
:100CF000306800F00700B84201D00120E5E728780D
:100D0000400705D56068E96820F4E060084360604A
:100D10002878000706D56068296920F4605040EA09
:100D2000C100606000F04CF86168F02292FAA2F213
:100D300001F0F001B2FA82F2D140074A515CC8409A
:100D4000064908600020FFF7E1FD0020BDE7000034
:100D50000020024000100240182200083C00002041
:100D600008480949006849684FF4E06292FAA2F223
:100D700001F4E061B2FA82F2D140044A515CC84009
:100D8000704700003C0000200010024028220008AC
:100D900008480949006849684FF4605292FAA2F283
:100DA00001F46051B2FA82F2D140044A515CC84069
:100DB000704700003C00002000100240282200087C
:100DC000144B10B55A68144802F00C0104291DD0C8
:100DD00008291BD14FF4701494FAA4F402F4701192
:100DE000B4FA84F4E1400D4CDB6A615C0F2494FAA0
:100DF000A4F403F00F03B4FA84F4E340074C103476
:100E0000D203E35C03D5B0FBF3F0484310BD0448C4
:100E1000484310BD0010024000127A00F82100087B
:100E200000093D002DE9F84F040071D02078FB4DFA
:100E3000C0074FF0010625D068687704C0F3810031
:100E4000012807D06868C0F3810002281BD16868B8
:100E5000C00318D597FAA7F0B0FA80F040F0200050
:100E6000400901D0286800E0686A97FAA7F1B1FA52
:100E700081F101F01F0106FA01F1084265D06068B6
:100E80000028D2D061E06068B0F5803F0BD010B18F
:100E9000B0F5A02F17D0286820F48030286028688B
:100EA00020F4802002E0286840F480302860E86A5E
:100EB000A16820F00F000843E862606820B3FFF7E4
:100EC00005FD80460AE0286840F480202860EAE7B3
:100ED000FFF7FCFCA0EB0800642872D897FAA7F093
:100EE000B0FA80F040F02000400901D0286800E00E
:100EF000686A97FAA7F1B1FA81F101F01F0106FAC9
:100F000001F10842E4D020E0FFF7E0FC804607E072
:100F1000C7E000BFFFF7DAFCA0EB08006428DCD8CC
:100F200097FAA7F0B0FA80F040F02000400901D015
:100F3000286800E0686A97FAA7F1B1FA81F101F038
:100F40001F0106FA01F10842E4D12078DFF8D082CF
:100F500080074FF0000A4FF0020759D568684FF03C
:100F6000F80B10F00C0F07D06868C0F3810002285E
:100F70001BD16868C00318D497FAA7F0B0FA80F0C4
:100F800040F02000400901D0286800E0686A97FA24
:100F9000A7F1B1FA81F101F01F0106FA01F108424F
:100FA0002BD0206901287CD127E0206988B396FAEC
:100FB000A6F0B0FA80F048F82060FFF787FC814681
:100FC00006E055E1FFF782FCA0EB0900022884D877
:100FD00097FAA7F0B0FA80F040F02000400901D065
:100FE000286800E0686A97FAA7F1B1FA81F101F088
:100FF0001F0106FA01F10842E4D028689BFAABF21F
:101000006169B2FA82F220F0F8009140084328604A
:1010100025E0FFE796FAA6F1B1FA81F148F821A0A0
:10102000FFF754FC814605E0FFF750FCA0EB0900F8
:101030000228CCD897FAA7F0B0FA80F040F0200050
:10104000400901D0286800E0686A97FAA7F1B1FA70
:1010500081F101F01F0106FA01F10842E4D1207884
:1010600000076AD5A069A0B396FAA6F0B0FA80F09E
:1010700008EB8000C0F88064FFF728FC814605E09B
:10108000FFF724FCA0EB09000228A0D897FAA7F0EC
:10109000B0FA80F040F06000B6EB501F02D1286833
:1010A0000CE077E197FAA7F0B0FA80F040F060002A
:1010B000B7EB501F01D1286A00E0686A97FAA7F1E0
:1010C000B1FA81F101F01F0106FA01F21042D7D006
:1010D00033E0FFE796FAA6F0B0FA80F008EB800064
:1010E000C0F880A4FFF7F2FB814605E0FFF7EEFBB6
:1010F000A0EB090002289CD897FAA7F0B0FA80F07C
:1011000040F06000B6EB501F01D128680BE097FA61
:10111000A7F0B0FA80F040F06000B7EB501F01D1AB
:10112000286A00E0686A97FAA7F1B1FA81F101F044
:101130001F0106FA01F21042D8D12078400774D579
:10114000E8694FF00009C00009D4E86940F0805018
:10115000E861E8694FF0010900F0805000903148E3
:101160000168C90512D4016841F480710160FFF77C
:10117000ADFB834606E000BFFFF7A8FBA0EB0B002A
:10118000642875D827480068C005F5D5E0680128AF
:101190000AD008B1052811D0286A20F00100286281
:1011A000286A20F0040002E0286A40F0010028626A
:1011B000E068C8B3FFF78AFB83460DE0286A40F079
:1011C00004002862F0E700BFFFF780FBA0EB0B01F3
:1011D00041F2883081424BD897FAA7F0B0FA80F0FC
:1011E00040F04000B6EB501F01D128680BE097FAA1
:1011F000A7F0B0FA80F040F04000B7EB501F01D1EB
:10120000286A00E0686A97FAA7F1B1FA81F101F063
:101210001F0106FA01F21042D6D035E0001002405C
:10122000000042420070004000E034E0FFF74EFB57
:10123000834607E0FFF74AFBA0EB0B0141F2883041
:10124000814215D897FAA7F0B0FA80F040F040003C
:10125000B6EB501F01D128680CE097FAA7F0B0FA5E
:1012600080F040F04000B7EB501F02D1286A01E047
:1012700083E0686A97FAA7F1B1FA81F101F01F01E2
:1012800006FA01F21042D5D1B9F1000F03D0E86996
:1012900020F08050E861E06980B36968C1F38101A2
:1012A000022977D04FF080714F00022809D091FABF
:1012B000A1F0B0FA80F048F820A0FFF707FB044641
:1012C0005EE050468A4691FAA1F1B1FA81F1C14639
:1012D00048F82100FFF7FAFA804605E0FFF7F6FA32
:1012E000A0EB0800022848D897FAA7F0B0FA80F0DF
:1012F00040F02000400902D0286801E056E0686A0A
:1013000097FAA7F1B1FA81F101F01F0106FA01F194
:101310000842E3D1D4E908100843696821F4741144
:10132000084368609AFAAAF0B0FA80F049F82060A1
:10133000FFF7CCFA044604E0FFF7C8FA001B0228C6
:101340001BD897FAA7F0B0FA80F040F020004009CF
:1013500001D0286800E0686A97FAA7F1B1FA81F134
:1013600001F01F0106FA01F10842E5D01EE000BFBE
:10137000FFF7ACFA001B022802D90320BDE8F88F62
:1013800097FAA7F0B0FA80F040F02000400902D0B0
:10139000286801E00CE0686A97FAA7F1B1FA81F1D8
:1013A00001F01F0106FA01F10842E1D10020E5E752
:1013B0000120E3E710B5401EB0F1807F01D301208A
:1013C00010BD4FF0E02460610F21601700F0A0FB1A
:1013D0000020A06107202061002010BD70477047E9
:1013E0007047000030B590F83C20012A1FD0012240
:1013F00080F83C200268536894680E4DAA4202D0DF
:101400000D4DAA4203D123F470054B682B4323F002
:1014100070050B6889682B4324F0800421435360D6
:1014200002689160002180F83C10084630BD02201F
:1014300030BD0000002C01400034014010B5040014
:1014400003D094F83D0010B107E0012010BD00204A
:1014500084F83C00204600F00DF8022084F83D009E
:10146000211D206800F0D4FB012084F83D000020FD
:1014700010BD000008B500680B49884212D10B4826
:10148000C16941F00201C161C069002200F002009F
:10149000009011461D20FFF783FABDE808401D208B
:1014A000FFF772BA08BD00000004004000100240BF
:1014B0000168CA6842F00102CA600068016841F030
:1014C000010101600020704770B5044690F83C00AF
:1014D000012817D0012584F83C50022084F83D00F3
:1014E00022689068364E304020F47F409060086853
:1014F000502839D00DDC20285BD005DC98B31028AB
:1015000043D153E0022070BD302855D040283CD153
:1015100041E0602830D070280CD0B0F5805F03D057
:10152000B0F5005F31D112E020688168244A703242
:10153000114016E0CB68D1E90121206800F0C0FB22
:1015400021688868304040F0770088601DE0CB68F3
:10155000D1E90121206800F0B3FB2068816841F4E3
:101560008041816011E01EE0CA684968206800F08F
:10157000B9FB5021206806E0CA684968206800F07D
:10158000C2FB6021206800F0A5FB84F83D500020DC
:1015900084F83C0070BDCA684968206800F0A2FB6E
:1015A00040212068EFE700212068ECE71021206847
:1015B000E9E720212068E6E730212068E3E7000022
:1015C00088FFFEFF704770B50446006801694FF060
:1015D0000005C943890715D4C168C943890711D4D7
:1015E000E91E01610120207720688069800720467C
:1015F00002D0FFF7E7FF04E000F0A7F8204600F074
:10160000A5F8257720680169C943490717D4C1683F
:10161000C943490713D46FF0040101610220207708
:101620002068806910F4407F204602D0FFF7CAFF8F
:1016300004E000F08AF8204600F088F8257720685A
:101640000169C943090716D4C168C943090712D4FF
:101650006FF008010161042020772068C0698007CD
:10166000204602D0FFF7AEFF04E000F06EF82046FF
:1016700000F06CF8257720680169C943C90617D4C2
:10168000C168C943C90613D46FF010010161082075
:1016900020772068C06910F4407F204602D0FFF711
:1016A00091FF04E000F051F8204600F04FF8257754
:1016B00020680169C943C90708D1C168C943C9077E
:1016C00004D1891E0161204600F042F820680169BA
:1016D000C943090609D4C168C943090605D46FF096
:1016E000800101612046FFF77AFE20680169C94345
:1016F000C90509D4C168C943090605D46FF48071CE
:1017000001612046FFF76AFE20680169C943490666
:1017100009D4C168C943490605D46FF0400101618D
:10172000204600F051F820680169C94389060BD4AE
:10173000C168C943890607D46FF0200101612046C2
:10174000BDE87040FFF74CBE70BD704770470000A9
:1017500070B516492DED028B0068884222D14115E3
:101760001348FFF7A9F81348134C90ED000B94EDC4
:10177000008B53EC102B51EC180BFEF7EAFD0F4DCC
:1017800095ED001B53EC112BFEF73CFD9FED0C0B70
:10179000C5E9000153EC102B51EC180BFEF732FD9C
:1017A000C4E90001BDEC028B70BD000000040040E4
:1017B0000010004808000020100000201800002041
:1017C000FCA9F1D24D62503F70477047704700004E
:1017D00070B503680446D869196810F00F0508D180
:1017E000820606D58A0604D52046BDE8704000F082
:1017F00053BB9A68002D66D002F0010501F4907683
:101800002E4360D0C60707D0CE0505D501261E623F
:10181000E36E43F00103E366830708D5D30706D0E0
:10182000266802233362E36E43F00403E366430752
:1018300008D5D20706D0236804221A62E26E42F06D
:101840000202E26602070AD501F020022A4306D00E
:10185000236808221A62E26E42F00802E266E26E33
:10186000002A29D0800604D5880602D5204600F03B
:1018700013FBE06E000703D42068806840061CD587
:10188000204600F0EEFA20688168490611D581688B
:1018900021F040018160606E58B11C494163606E67
:1018A000FEF714FF002807D0606E416BBDE8704062
:1018B00008472046FFF78AFF70BD2046FFF786FFE6
:1018C0000020E06670BDC5020ED552020CD54FF463
:1018D00080101862202084F8690084F86A0020468D
:1018E000BDE87040FFF771BF020606D50A0604D5B1
:1018F0002046BDE8704000F0F5BB4006E2D5480642
:10190000E0D52046BDE8704000F0B9BA4F1E00088F
:1019100010B5040003D094F8690010B107E001206D
:1019200010BD002084F86800204600F027F824202D
:1019300084F869002068016821F0010101602046F7
:1019400000F0E6FA0128EBD0606A10B1204600F002
:10195000ECF92068416821F4904141602068816879
:1019600021F02A0181602068016841F001010160D5
:101970002046BDE8104000F03CBA000010B586B02B
:10198000044614216846FEF732FC17492068884255
:1019900027D11648C16941F40031C161C16901F420
:1019A00000310591416941F4003141614069694666
:1019B00000F4003005900C200090022001900020DF
:1019C000029003200390072004904FF09040FEF710
:1019D000AFFE002211462620FEF7E2FF2620FEF78A
:1019E000D3FF06B010BD00000044004000100240CC
:1019F00070477047FEE7000030B587B01421684695
:101A0000FEF7F5FB1E48416941F4800141614169DF
:101A100001F480010591416941F40031416141695E
:101A200001F400310591416941F4001141614069BF
:101A3000144D00F400100122059011022846FEF713
:101A40003FFF012410486946CDE900404FF0904027
:101A50000294FEF76DFE4FF4407000900021CDE936
:101A60000141039169462846FEF762FE00221146B5
:101A70000620FEF795FF0620FEF786FF07B030BD73
:101A800000100240001000480000211010B588B07E
:101A90000024124800940194029403940494059441
:101AA0000D490694016048F69F41C0E901140221E6
:101AB000C0E903148461FFF7C1FC4FF4805000902B
:101AC00069460648FFF700FD049404A903480694FC
:101AD000FFF788FC08B010BD000400404000002063
:101AE0000948084901604FF41651416000218160A6
:101AF0000C22C160C0E904128161C16101624162CE
:101B0000FFF706BF0044004080000020FEE770475A
:101B10000907090E002806DA00F00F0000F1E020A6
:101B200080F8141D704700F1E02080F80014704721
:101B3000704770477047FEF7CFBE30B59FB0282181
:101B40006846FEF754FB142119A8FEF750FB3C2110
:101B50000AA8FEF74CFB01210804CDE9001000247F
:101B6000029402250491CDE907504FF4E01009904A
:101B70006846FFF757F90F20CDE919056802CDE94E
:101B80001B40022119A81D94FFF748F80AA80A95DE
:101B90000D94FEF737FF1FB030BD000014480168F8
:101BA00041F4700101601348016841F001010160D6
:101BB0004168114A114041600168104A11400160BA
:101BC000016821F480210160416821F4FE01416037
:101BD000C16A21F00F01C162016B094A1140016322
:101BE000002181600249C00380390860704700000D
:101BF00088ED00E0001002400CC07FF8FFFFF6FE09
:101C0000CCFC00FF0148FFF7DEBC000040000020D4
:101C10002DE9F0430268234B234D244E244C4FF012
:101C20008049984207D0484505D0A84203D0B04229
:101C300001D0A04203D122F070074A683A431D4FF9
:101C4000DFF874C0DFF8748098420DD048450BD09F
:101C5000A84209D0B04207D0A04205D0B84203D074
:101C6000604501D0404503D122F44075CA682A433B
:101C70004D6922F080022A4302608A68C2620A68C3
:101C80008262984207D0A04205D0B84203D0604596
:101C900001D0404501D10969016301214161BDE8DD
:101CA000F0830000002C01400004004000080040C8
:101CB0000034014000400140004401400048014020
:101CC00010B5846842EA032224F47F440A43224385
:101CD000826010BD826822F070020A4342F0070160
:101CE0008160704710B5036A046A24F0010404623D
:101CF000846924F0F00444EA021423F00A020A433F
:101D00008461026210BD10B5036A23F01003036200
:101D10008369046A23F4704343EA023224F0A00387
:101D200043EA01118261016210BD90F82410C907D5
:101D300006D001684A68836A22F400321A434A6076
:101D400090F82410890706D501684A68C36A22F40E
:101D500080321A434A6090F82410490706D501687A
:101D60004A68036B22F480221A434A6090F82410D8
:101D7000090706D501684A68436B22F400421A43FA
:101D80004A6090F82410C90606D501688A68836BFA
:101D900022F480521A438A6090F82410890606D5EE
:101DA00001688A68C36B22F400521A438A6090F873
:101DB0002410490611D501684A68036C22F4801288
:101DC0001A434A60016CB1F5801F06D101684A6868
:101DD000436C22F4C0021A434A6090F824100906AA
:101DE00006D501684A68806C22F4002202434A60EA
:101DF0007047F8B500260446C666FEF767FD05463F
:101E0000206800686FF07E47000708D52B46002247
:101E10004FF400112046009700F096F960B9206851
:101E2000006840070AD52B4600224FF48001204667
:101E3000009700F089F908B10320F8BD202084F84C
:101E4000690084F86A0084F868600020F8BD10B565
:101E5000406A0021A0F85A10A0F85210FFF7B6FC13
:101E600010BD01680A6822F490720A6001688A68ED
:101E700022F001028A60202180F86A10704710B5B4
:101E800001680A6822F040020A60202180F8691087
:101E9000FFF7AFFD002010BD10B5B0F85C2090F842
:101EA0006A300168222B05D0886940F008008861FB
:101EB000022010BD898C8368B3F5805F01D103696E
:101EC0006BB11140426D531C43651170B0F85A104C
:101ED000491E0904090CA0F85A1007D015E0436DFB
:101EE00011401980416D891C4165EFE701680A685E
:101EF00022F490720A6001688A6822F001028A6006
:101F0000202180F86A10FFF773FD002010BD00004B
:101F10002DE9F041044610202369A268E6691A43BE
:101F20006369002133431A4323680D461E6849F252
:101F30000C67BE4316431E6022685368E66823F4AC
:101F4000405333435360236AA2691A4323689E684F
:101F500026F4306616439E605A4F22685A4B060399
:101F6000BA420CD11B6B13F0030306D0012B4DD0EA
:101F7000022B4DD0032B4CD146E0012049E0534FBA
:101F8000BA420CD11B6B13F440333BD0B3423DD06B
:101F9000B3F5003F3CD0B3F5403F3AD134E04C4F6D
:101FA000BA420DD11B6B13F440232BD0B3F5802F15
:101FB0002CD0B3F5002F2BD0B3F5402F29D123E03F
:101FC000444FBA420DD11B6B13F440131AD0B3F532
:101FD000801F1BD0B3F5001F1AD0B3F5401F18D1D6
:101FE00012E03D4FBA4214D11B6B13F4400309D0E9
:101FF000B3F5800F0AD0B3F5000F09D0B3F5400F49
:1020000007D101E0002004E0022002E0042000E00B
:102010000820E7694FF400439F4226D109281DD2CA
:10202000DFE800F00508121C151C1C1C1800FEF748
:1020300097FE01E0FEF7ACFE4100606801EB500145
:10204000B1FBF0F081B20AE024496068F6E7FEF7E0
:10205000B7FEF1E7606806EB5001F1E7012521F0DA
:102060000F00C1F3420108431CE0092825D2DFE834
:1020700000F005080B24102424241C00FEF770FE39
:1020800009E0FEF785FE06E01549606801EB5001A6
:102090000EE0FEF795FE0146606801EB5001B1FBD2
:1020A000F0F080B22168C86008E0606803EB50017E
:1020B000B1FBF0F080B2D06000E001252846BDE819
:1020C000F081000000380140001002400044004050
:1020D00000480040004C0040005000400024F40044
:1020E00000127A0090F86910212901D0022070476F
:1020F000B0F8521021B18168B1F5805F0BD00CE0CF
:1021000001680A6822F080020A600068016841F0F4
:10211000400101600CE0016961B1C16C4A1CC264FC
:1021200002680978A2F8281030F8521F491E018071
:1021300000207047C16C02680988C1F3080111854D
:10214000C16C891CC164EFE72DE9F0419846174640
:102150000E460446069D1DE0681C1BD02DB1FEF7FF
:10216000B5FBA0EB0800A84214D92068016821F44F
:10217000D07101602068816821F001018160202018
:1021800084F8690084F86A00002084F8680003205D
:10219000BDE8F0812068C06936EA000004D0002064
:1021A000B842D9D00020F3E70120F9E70148FFF752
:1021B0000FBB000080000020FEE702E008C8121FED
:1021C00008C1002AFAD170477047002001E001C120
:1021D000121F002AFBD17047FEF786FBFFF7ADFC0C
:1021E000FFF70AFCFFF752FCFFF77AFC0148FFF704
:1021F0005FF9FEE740000020020304050607080916
:102200000A0B0C0D0E0F101001020304050607083F
:10221000090A0B0C0D0E0F1000000000000000005A
:10222000010203040607080900000000010203047C
:10223000502200080000002040000000BA210008E1
:102240009022000840000020B0040000CA210008CD
:10225000000000000000000000000000000000007E
:10226000000000000000000000000000000000006E
:10227000000000000000000000000000000000005E
:1022800001000000100000000000000000127A00B1
:040000050800018965
:00000001FF
